{"abi":[{"type":"constructor","inputs":[{"name":"_factory","type":"address","internalType":"address"}],"stateMutability":"nonpayable"},{"type":"function","name":"addLiquidity","inputs":[{"name":"tokenA","type":"address","internalType":"address"},{"name":"tokenB","type":"address","internalType":"address"},{"name":"amountA","type":"uint256","internalType":"uint256"},{"name":"amountB","type":"uint256","internalType":"uint256"},{"name":"amountlptokenMin","type":"uint256","internalType":"uint256"}],"outputs":[],"stateMutability":"nonpayable"},{"type":"function","name":"factory","inputs":[],"outputs":[{"name":"","type":"address","internalType":"address"}],"stateMutability":"view"},{"type":"function","name":"removeLiquidity","inputs":[{"name":"tokenA","type":"address","internalType":"address"},{"name":"tokenB","type":"address","internalType":"address"},{"name":"lpToken","type":"address","internalType":"address"},{"name":"lpAmount","type":"uint256","internalType":"uint256"}],"outputs":[],"stateMutability":"nonpayable"},{"type":"function","name":"swap","inputs":[{"name":"inputToken","type":"address","internalType":"address"},{"name":"outputToken","type":"address","internalType":"address"},{"name":"inputAmount","type":"uint256","internalType":"uint256"},{"name":"outputAmount","type":"uint256","internalType":"uint256"},{"name":"minoutputAmount","type":"uint256","internalType":"uint256"}],"outputs":[],"stateMutability":"nonpayable"},{"type":"event","name":"Transfer","inputs":[{"name":"token","type":"address","indexed":false,"internalType":"address"},{"name":"from","type":"address","indexed":true,"internalType":"address"},{"name":"to","type":"address","indexed":true,"internalType":"address"},{"name":"value","type":"uint256","indexed":false,"internalType":"uint256"}],"anonymous":false}],"bytecode":{"object":"0x60a060405234801561001057600080fd5b506040516110d83803806110d883398101604081905261002f91610040565b6001600160a01b0316608052610070565b60006020828403121561005257600080fd5b81516001600160a01b038116811461006957600080fd5b9392505050565b60805161103a61009e60003960008181607e0152818160f9015281816104e901526109cc015261103a6000f3fe608060405234801561001057600080fd5b506004361061004c5760003560e01c80637a950f991461005157806391c98a2a14610066578063c45a015514610079578063da613b51146100bc575b600080fd5b61006461005f366004610e55565b6100cf565b005b610064610074366004610e55565b6104bf565b6100a07f000000000000000000000000000000000000000000000000000000000000000081565b6040516001600160a01b03909116815260200160405180910390f35b6100646100ca366004610ea6565b6109a2565b60405163e6a4390560e01b81526001600160a01b03868116600483015285811660248301526000917f00000000000000000000000000000000000000000000000000000000000000009091169063e6a4390590604401602060405180830381865afa158015610142573d6000803e3d6000fd5b505050506040513d601f19601f820116820180604052508101906101669190610ef7565b90506001600160a01b0381166101975760405162461bcd60e51b815260040161018e90610f1b565b60405180910390fd5b604051636eb1769f60e11b81523360048201526001600160a01b0382811660248301526000919088169063dd62ed3e90604401602060405180830381865afa1580156101e7573d6000803e3d6000fd5b505050506040513d601f19601f8201168201806040525081019061020b9190610f52565b90508481101561025d5760405162461bcd60e51b815260206004820152601e60248201527f526f757465723a20496e73756666696369656e7420616c6c6f77616e63650000604482015260640161018e565b6040516370a0823160e01b81526001600160a01b038381166004830152600091908916906370a0823190602401602060405180830381865afa1580156102a7573d6000803e3d6000fd5b505050506040513d601f19601f820116820180604052508101906102cb9190610f52565b6040516370a0823160e01b81526001600160a01b0385811660048301529192506000918916906370a0823190602401602060405180830381865afa158015610317573d6000803e3d6000fd5b505050506040513d601f19601f8201168201806040525081019061033b9190610f52565b60405163149c1f6360e21b81526004810184905260248101829052604481018990526064810187905290915060009073f47707383eb1e07f66c77c0cc1084cd41929f92a906352707d8c90608401602060405180830381865af41580156103a6573d6000803e3d6000fd5b505050506040513d601f19601f820116820180604052508101906103ca9190610f52565b6040516323b872dd60e01b81529091506001600160a01b038b16906323b872dd906103fd90339089908d90600401610f6b565b6020604051808303816000875af115801561041c573d6000803e3d6000fd5b505050506040513d601f19601f820116820180604052508101906104409190610fa4565b50604051631a730de160e31b8152600481018790523360248201526001600160a01b0386169063d3986f08906044016020604051808303816000875af115801561048e573d6000803e3d6000fd5b505050506040513d601f19601f820116820180604052508101906104b29190610f52565b5050505050505050505050565b60405163e6a4390560e01b81526001600160a01b03868116600483015285811660248301526000917f00000000000000000000000000000000000000000000000000000000000000009091169063e6a4390590604401602060405180830381865afa158015610532573d6000803e3d6000fd5b505050506040513d601f19601f820116820180604052508101906105569190610ef7565b90506001600160a01b03811661057e5760405162461bcd60e51b815260040161018e90610f1b565b60405163095ea7b360e01b81526001600160a01b0386169063095ea7b3906105ac9030908790600401610fbf565b6020604051808303816000875af11580156105cb573d6000803e3d6000fd5b505050506040513d601f19601f820116820180604052508101906105ef9190610fa4565b5060405163095ea7b360e01b81526001600160a01b0386169063095ea7b39061061e9030908790600401610fbf565b6020604051808303816000875af115801561063d573d6000803e3d6000fd5b505050506040513d601f19601f820116820180604052508101906106619190610fa4565b506040516323b872dd60e01b81526001600160a01b038716906323b872dd9061069290339030908990600401610f6b565b6020604051808303816000875af11580156106b1573d6000803e3d6000fd5b505050506040513d601f19601f820116820180604052508101906106d59190610fa4565b506040516323b872dd60e01b81526001600160a01b038616906323b872dd9061070690339030908890600401610f6b565b6020604051808303816000875af1158015610725573d6000803e3d6000fd5b505050506040513d601f19601f820116820180604052508101906107499190610fa4565b5060405163a9059cbb60e01b81526001600160a01b0387169063a9059cbb906107789084908890600401610fbf565b6020604051808303816000875af1158015610797573d6000803e3d6000fd5b505050506040513d601f19601f820116820180604052508101906107bb9190610fa4565b5060405163a9059cbb60e01b81526001600160a01b0386169063a9059cbb906107ea9084908790600401610fbf565b6020604051808303816000875af1158015610809573d6000803e3d6000fd5b505050506040513d601f19601f8201168201806040525081019061082d9190610fa4565b50600080826001600160a01b0316631249c58b6040518163ffffffff1660e01b815260040160408051808303816000875af1158015610870573d6000803e3d6000fd5b505050506040513d601f19601f820116820180604052508101906108949190610fd8565b91509150838110156108e85760405162461bcd60e51b815260206004820152601e60248201527f526f757465723a20496e73756666696369656e74206c69717569646974790000604482015260640161018e565b60405163a9059cbb60e01b81526001600160a01b0384169063a9059cbb906109169033908590600401610fbf565b6020604051808303816000875af1158015610935573d6000803e3d6000fd5b505050506040513d601f19601f820116820180604052508101906109599190610fa4565b50604051339030907fd1398bee19313d6bf672ccb116e51f4a1a947e91c757907f51fbb5b5e56c698f906109909087908690610fbf565b60405180910390a35050505050505050565b60405163e6a4390560e01b81526001600160a01b03858116600483015284811660248301526000917f00000000000000000000000000000000000000000000000000000000000000009091169063e6a4390590604401602060405180830381865afa158015610a15573d6000803e3d6000fd5b505050506040513d601f19601f82011682018060405250810190610a399190610ef7565b90506001600160a01b038116610a615760405162461bcd60e51b815260040161018e90610f1b565b604051636eb1769f60e11b815233600482015230602482015282906001600160a01b0383169063dd62ed3e90604401602060405180830381865afa158015610aad573d6000803e3d6000fd5b505050506040513d601f19601f82011682018060405250810190610ad19190610f52565b1015610b1f5760405162461bcd60e51b815260206004820152601e60248201527f526f757465723a20496e73756666696369656e7420616c6c6f77616e63650000604482015260640161018e565b6040516323b872dd60e01b81526001600160a01b038416906323b872dd90610b4f90339030908790600401610f6b565b6020604051808303816000875af1158015610b6e573d6000803e3d6000fd5b505050506040513d601f19601f82011682018060405250810190610b929190610fa4565b50806001600160a01b03166344df8e706040518163ffffffff1660e01b81526004016020604051808303816000875af1158015610bd3573d6000803e3d6000fd5b505050506040513d601f19601f82011682018060405250810190610bf79190610fa4565b506040516370a0823160e01b81523060048201526000906001600160a01b038716906370a0823190602401602060405180830381865afa158015610c3f573d6000803e3d6000fd5b505050506040513d601f19601f82011682018060405250810190610c639190610f52565b6040516370a0823160e01b81523060048201529091506000906001600160a01b038716906370a0823190602401602060405180830381865afa158015610cad573d6000803e3d6000fd5b505050506040513d601f19601f82011682018060405250810190610cd19190610f52565b60405163a9059cbb60e01b81529091506001600160a01b0388169063a9059cbb90610d029033908690600401610fbf565b6020604051808303816000875af1158015610d21573d6000803e3d6000fd5b505050506040513d601f19601f82011682018060405250810190610d459190610fa4565b5060405163a9059cbb60e01b81526001600160a01b0387169063a9059cbb90610d749033908590600401610fbf565b6020604051808303816000875af1158015610d93573d6000803e3d6000fd5b505050506040513d601f19601f82011682018060405250810190610db79190610fa4565b50604051339030907fd1398bee19313d6bf672ccb116e51f4a1a947e91c757907f51fbb5b5e56c698f90610dee908b908790610fbf565b60405180910390a3604051339030907fd1398bee19313d6bf672ccb116e51f4a1a947e91c757907f51fbb5b5e56c698f90610e2c908a908690610fbf565b60405180910390a350505050505050565b6001600160a01b0381168114610e5257600080fd5b50565b600080600080600060a08688031215610e6d57600080fd5b8535610e7881610e3d565b94506020860135610e8881610e3d565b94979496505050506040830135926060810135926080909101359150565b60008060008060808587031215610ebc57600080fd5b8435610ec781610e3d565b93506020850135610ed781610e3d565b92506040850135610ee781610e3d565b9396929550929360600135925050565b600060208284031215610f0957600080fd5b8151610f1481610e3d565b9392505050565b6020808252601b908201527f526f757465723a20506f6f6c20646f6573206e6f742065786973740000000000604082015260600190565b600060208284031215610f6457600080fd5b5051919050565b6001600160a01b039384168152919092166020820152604081019190915260600190565b80518015158114610f9f57600080fd5b919050565b600060208284031215610fb657600080fd5b610f1482610f8f565b6001600160a01b03929092168252602082015260400190565b60008060408385031215610feb57600080fd5b610ff483610f8f565b915060208301519050925092905056fea2646970667358221220345eb0ace790959571062a363f709deac05a5a1ddcd8ff75c29436f3d652295764736f6c63430008140033","linkReferences":{}},"methodIdentifiers":{"addLiquidity(address,address,uint256,uint256,uint256)":"91c98a2a","factory()":"c45a0155","removeLiquidity(address,address,address,uint256)":"da613b51","swap(address,address,uint256,uint256,uint256)":"7a950f99"},"id":7}