{"abi":[{"type":"constructor","inputs":[{"name":"_tokenA","type":"address","internalType":"address"},{"name":"_tokenB","type":"address","internalType":"address"}],"stateMutability":"nonpayable"},{"type":"function","name":"allowance","inputs":[{"name":"owner","type":"address","internalType":"address"},{"name":"spender","type":"address","internalType":"address"}],"outputs":[{"name":"","type":"uint256","internalType":"uint256"}],"stateMutability":"view"},{"type":"function","name":"approve","inputs":[{"name":"spender","type":"address","internalType":"address"},{"name":"value","type":"uint256","internalType":"uint256"}],"outputs":[{"name":"","type":"bool","internalType":"bool"}],"stateMutability":"nonpayable"},{"type":"function","name":"balanceOf","inputs":[{"name":"account","type":"address","internalType":"address"}],"outputs":[{"name":"","type":"uint256","internalType":"uint256"}],"stateMutability":"view"},{"type":"function","name":"burn","inputs":[],"outputs":[{"name":"","type":"bool","internalType":"bool"}],"stateMutability":"nonpayable"},{"type":"function","name":"decimals","inputs":[],"outputs":[{"name":"","type":"uint8","internalType":"uint8"}],"stateMutability":"view"},{"type":"function","name":"getReserve","inputs":[],"outputs":[{"name":"","type":"uint256","internalType":"uint256"},{"name":"","type":"uint256","internalType":"uint256"}],"stateMutability":"view"},{"type":"function","name":"mint","inputs":[],"outputs":[{"name":"","type":"bool","internalType":"bool"},{"name":"","type":"uint256","internalType":"uint256"}],"stateMutability":"nonpayable"},{"type":"function","name":"name","inputs":[],"outputs":[{"name":"","type":"string","internalType":"string"}],"stateMutability":"view"},{"type":"function","name":"reserveA","inputs":[],"outputs":[{"name":"","type":"uint256","internalType":"uint256"}],"stateMutability":"view"},{"type":"function","name":"reserveB","inputs":[],"outputs":[{"name":"","type":"uint256","internalType":"uint256"}],"stateMutability":"view"},{"type":"function","name":"swap","inputs":[{"name":"minOutputAmount","type":"uint256","internalType":"uint256"},{"name":"to","type":"address","internalType":"address"}],"outputs":[{"name":"","type":"uint256","internalType":"uint256"}],"stateMutability":"nonpayable"},{"type":"function","name":"symbol","inputs":[],"outputs":[{"name":"","type":"string","internalType":"string"}],"stateMutability":"view"},{"type":"function","name":"tokenA","inputs":[],"outputs":[{"name":"","type":"address","internalType":"address"}],"stateMutability":"view"},{"type":"function","name":"tokenB","inputs":[],"outputs":[{"name":"","type":"address","internalType":"address"}],"stateMutability":"view"},{"type":"function","name":"totalSupply","inputs":[],"outputs":[{"name":"","type":"uint256","internalType":"uint256"}],"stateMutability":"view"},{"type":"function","name":"transfer","inputs":[{"name":"to","type":"address","internalType":"address"},{"name":"value","type":"uint256","internalType":"uint256"}],"outputs":[{"name":"","type":"bool","internalType":"bool"}],"stateMutability":"nonpayable"},{"type":"function","name":"transferFrom","inputs":[{"name":"from","type":"address","internalType":"address"},{"name":"to","type":"address","internalType":"address"},{"name":"value","type":"uint256","internalType":"uint256"}],"outputs":[{"name":"","type":"bool","internalType":"bool"}],"stateMutability":"nonpayable"},{"type":"function","name":"updateReserve","inputs":[],"outputs":[],"stateMutability":"nonpayable"},{"type":"event","name":"Approval","inputs":[{"name":"owner","type":"address","indexed":true,"internalType":"address"},{"name":"spender","type":"address","indexed":true,"internalType":"address"},{"name":"value","type":"uint256","indexed":false,"internalType":"uint256"}],"anonymous":false},{"type":"event","name":"Burn","inputs":[{"name":"sender","type":"address","indexed":true,"internalType":"address"},{"name":"amountA","type":"uint256","indexed":true,"internalType":"uint256"}],"anonymous":false},{"type":"event","name":"Mint","inputs":[{"name":"sender","type":"address","indexed":true,"internalType":"address"},{"name":"amount","type":"uint256","indexed":true,"internalType":"uint256"}],"anonymous":false},{"type":"event","name":"Swap","inputs":[{"name":"inputAmount","type":"uint256","indexed":false,"internalType":"uint256"},{"name":"outputAmount","type":"uint256","indexed":false,"internalType":"uint256"},{"name":"to","type":"address","indexed":true,"internalType":"address"}],"anonymous":false},{"type":"event","name":"Transfer","inputs":[{"name":"from","type":"address","indexed":true,"internalType":"address"},{"name":"to","type":"address","indexed":true,"internalType":"address"},{"name":"value","type":"uint256","indexed":false,"internalType":"uint256"}],"anonymous":false},{"type":"error","name":"ERC20InsufficientAllowance","inputs":[{"name":"spender","type":"address","internalType":"address"},{"name":"allowance","type":"uint256","internalType":"uint256"},{"name":"needed","type":"uint256","internalType":"uint256"}]},{"type":"error","name":"ERC20InsufficientBalance","inputs":[{"name":"sender","type":"address","internalType":"address"},{"name":"balance","type":"uint256","internalType":"uint256"},{"name":"needed","type":"uint256","internalType":"uint256"}]},{"type":"error","name":"ERC20InvalidApprover","inputs":[{"name":"approver","type":"address","internalType":"address"}]},{"type":"error","name":"ERC20InvalidReceiver","inputs":[{"name":"receiver","type":"address","internalType":"address"}]},{"type":"error","name":"ERC20InvalidSender","inputs":[{"name":"sender","type":"address","internalType":"address"}]},{"type":"error","name":"ERC20InvalidSpender","inputs":[{"name":"spender","type":"address","internalType":"address"}]}],"bytecode":{"object":"0x60806040523480156200001157600080fd5b50604051620018c0380380620018c083398101604081905262000034916200015c565b6040518060400160405280600c81526020016b2d343ab4b9bbb0b82830b4b960a11b8152506040518060400160405280600381526020016205a4c560ec1b815250816003908162000086919062000239565b50600462000095828262000239565b505050806001600160a01b0316826001600160a01b0316036200010d5760405162461bcd60e51b815260206004820152602660248201527f436f6e7374727563746f723a204964656e746963616c20746f6b656e2061646460448201526572657373657360d01b606482015260840160405180910390fd5b600580546001600160a01b039384166001600160a01b0319918216179091556006805492909316911617905562000305565b80516001600160a01b03811681146200015757600080fd5b919050565b600080604083850312156200017057600080fd5b6200017b836200013f565b91506200018b602084016200013f565b90509250929050565b634e487b7160e01b600052604160045260246000fd5b600181811c90821680620001bf57607f821691505b602082108103620001e057634e487b7160e01b600052602260045260246000fd5b50919050565b601f8211156200023457600081815260208120601f850160051c810160208610156200020f5750805b601f850160051c820191505b8181101562000230578281556001016200021b565b5050505b505050565b81516001600160401b0381111562000255576200025562000194565b6200026d81620002668454620001aa565b84620001e6565b602080601f831160018114620002a557600084156200028c5750858301515b600019600386901b1c1916600185901b17855562000230565b600085815260208120601f198616915b82811015620002d657888601518255948401946001909101908401620002b5565b5085821015620002f55787850151600019600388901b60f8161c191681555b5050505050600190811b01905550565b6115ab80620003156000396000f3fe608060405234801561001057600080fd5b50600436106101165760003560e01c806359bf5d39116100a2578063a9059cbb11610071578063a9059cbb1461024a578063bac051ad1461025d578063d3986f0814610267578063dc5fa6c51461027a578063dd62ed3e1461028357600080fd5b806359bf5d39146101eb5780635f64b55b1461020657806370a082311461021957806395d89b411461024257600080fd5b806318160ddd116100e957806318160ddd146101a657806319e36f3b146101b857806323b872dd146101c1578063313ce567146101d457806344df8e70146101e357600080fd5b806306fdde031461011b578063095ea7b3146101395780630fc63d101461015c5780631249c58b14610187575b600080fd5b6101236102bc565b604051610130919061134a565b60405180910390f35b61014c6101473660046113b4565b61034e565b6040519015158152602001610130565b60055461016f906001600160a01b031681565b6040516001600160a01b039091168152602001610130565b61018f610368565b604080519215158352602083019190915201610130565b6002545b604051908152602001610130565b6101aa60085481565b61014c6101cf3660046113de565b6105b2565b60405160128152602001610130565b61014c6105d6565b60075460085460408051928352602083019190915201610130565b60065461016f906001600160a01b031681565b6101aa61022736600461141a565b6001600160a01b031660009081526020819052604090205490565b61012361086a565b61014c6102583660046113b4565b610879565b610265610887565b005b6101aa610275366004611435565b610967565b6101aa60075481565b6101aa610291366004611461565b6001600160a01b03918216600090815260016020908152604080832093909416825291909152205490565b6060600380546102cb9061148b565b80601f01602080910402602001604051908101604052809291908181526020018280546102f79061148b565b80156103445780601f1061031957610100808354040283529160200191610344565b820191906000526020600020905b81548152906001019060200180831161032757829003601f168201915b5050505050905090565b60003361035c818585610fd4565b60019150505b92915050565b6005546040516370a0823160e01b8152306004820152600091829182916001600160a01b0316906370a0823190602401602060405180830381865afa1580156103b5573d6000803e3d6000fd5b505050506040513d601f19601f820116820180604052508101906103d991906114c5565b6006546040516370a0823160e01b81523060048201529192506000916001600160a01b03909116906370a0823190602401602060405180830381865afa158015610427573d6000803e3d6000fd5b505050506040513d601f19601f8201168201806040525081019061044b91906114c5565b905060006007548361045d91906114f4565b905060006008548361046f91906114f4565b905060008061047d60025490565b90508060000361052a576103e873__$fdd78a3759cb6bd0fabfbae0f9c397db81$__63677342ce6104ae8688611507565b6040518263ffffffff1660e01b81526004016104cc91815260200190565b602060405180830381865af41580156104e9573d6000803e3d6000fd5b505050506040513d601f19601f8201168201806040525081019061050d91906114c5565b61051791906114f4565b9150610525306103e8610fe6565b610564565b6007546105619061053b8387611507565b610545919061151e565b6008546105528487611507565b61055c919061151e565b611020565b91505b61056e3383610fe6565b610576610887565b604051829033907f0f6798a560793a54c3bcfe86a93cde1e73087d944c0ea20544137d412139688590600090a350600197909650945050505050565b6000336105c0858285611038565b6105cb8585856110b6565b506001949350505050565b6040516370a0823160e01b8152336004820152600090819030906370a0823190602401602060405180830381865afa158015610616573d6000803e3d6000fd5b505050506040513d601f19601f8201168201806040525081019061063a91906114c5565b90506000306001600160a01b03166318160ddd6040518163ffffffff1660e01b8152600401602060405180830381865afa15801561067c573d6000803e3d6000fd5b505050506040513d601f19601f820116820180604052508101906106a091906114c5565b6007546106ad9084611507565b6106b7919061151e565b90506000306001600160a01b03166318160ddd6040518163ffffffff1660e01b8152600401602060405180830381865afa1580156106f9573d6000803e3d6000fd5b505050506040513d601f19601f8201168201806040525081019061071d91906114c5565b60085461072a9085611507565b610734919061151e565b60055460405163a9059cbb60e01b8152336004820152602481018590529192506001600160a01b03169063a9059cbb906044016020604051808303816000875af1158015610786573d6000803e3d6000fd5b505050506040513d601f19601f820116820180604052508101906107aa9190611540565b5060065460405163a9059cbb60e01b8152336004820152602481018390526001600160a01b039091169063a9059cbb906044016020604051808303816000875af11580156107fc573d6000803e3d6000fd5b505050506040513d601f19601f820116820180604052508101906108209190611540565b5061082b3384611115565b610833610887565b604051839033907fcc16f5dbb4873280815c1ee09dbd06736cffcc184412cf7a71a0fdb75d397ca590600090a36001935050505090565b6060600480546102cb9061148b565b60003361035c8185856110b6565b6005546040516370a0823160e01b81523060048201526001600160a01b03909116906370a0823190602401602060405180830381865afa1580156108cf573d6000803e3d6000fd5b505050506040513d601f19601f820116820180604052508101906108f391906114c5565b6007556006546040516370a0823160e01b81523060048201526001600160a01b03909116906370a0823190602401602060405180830381865afa15801561093e573d6000803e3d6000fd5b505050506040513d601f19601f8201168201806040525081019061096291906114c5565b600855565b60008060008061097a6007546008549091565b6005546040516370a0823160e01b815230600482015292945090925060009184916001600160a01b0316906370a0823190602401602060405180830381865afa1580156109cb573d6000803e3d6000fd5b505050506040513d601f19601f820116820180604052508101906109ef91906114c5565b6109f991906114f4565b6006546040516370a0823160e01b815230600482015291925060009184916001600160a01b0316906370a0823190602401602060405180830381865afa158015610a47573d6000803e3d6000fd5b505050506040513d601f19601f82011682018060405250810190610a6b91906114c5565b610a7591906114f4565b905081158015610a83575080155b610ad45760405162461bcd60e51b815260206004820152601c60248201527f506169723a20496e73756666696369656e74206c69717569646974790000000060448201526064015b60405180910390fd5b8115610d4e576005546040516370a0823160e01b815230600482015273__$fdd78a3759cb6bd0fabfbae0f9c397db81$__916352707d8c916001600160a01b03909116906370a0823190602401602060405180830381865afa158015610b3e573d6000803e3d6000fd5b505050506040513d601f19601f82011682018060405250810190610b6291906114c5565b6006546040516370a0823160e01b81523060048201526001600160a01b03909116906370a0823190602401602060405180830381865afa158015610baa573d6000803e3d6000fd5b505050506040513d601f19601f82011682018060405250810190610bce91906114c5565b6040516001600160e01b031960e085901b1681526004810192909252602482015260448101859052606481018b9052608401602060405180830381865af4158015610c1d573d6000803e3d6000fd5b505050506040513d601f19601f82011682018060405250810190610c4191906114c5565b945087851015610c895760405162461bcd60e51b8152602060048201526013602482015272185b5bdd5b9d081a5cc81d1bdbc81cdb585b1b606a1b6044820152606401610acb565b60065460405163a9059cbb60e01b81526001600160a01b038981166004830152602482018890529091169063a9059cbb906044016020604051808303816000875af1158015610cdc573d6000803e3d6000fd5b505050506040513d601f19601f82011682018060405250810190610d009190611540565b50610d09610887565b60408051838152602081018790526001600160a01b038916917f7af2bc3f8ec800c569b6555feaf16589d96a9d04a49d1645fd456d75fa0b372b910160405180910390a25b8015610fc8576006546040516370a0823160e01b815230600482015273__$fdd78a3759cb6bd0fabfbae0f9c397db81$__916352707d8c916001600160a01b03909116906370a0823190602401602060405180830381865afa158015610db8573d6000803e3d6000fd5b505050506040513d601f19601f82011682018060405250810190610ddc91906114c5565b6005546040516370a0823160e01b81523060048201526001600160a01b03909116906370a0823190602401602060405180830381865afa158015610e24573d6000803e3d6000fd5b505050506040513d601f19601f82011682018060405250810190610e4891906114c5565b6040516001600160e01b031960e085901b1681526004810192909252602482015260448101849052606481018b9052608401602060405180830381865af4158015610e97573d6000803e3d6000fd5b505050506040513d601f19601f82011682018060405250810190610ebb91906114c5565b945087851015610f035760405162461bcd60e51b8152602060048201526013602482015272185b5bdd5b9d081a5cc81d1bdbc81cdb585b1b606a1b6044820152606401610acb565b60055460405163a9059cbb60e01b81526001600160a01b038981166004830152602482018890529091169063a9059cbb906044016020604051808303816000875af1158015610f56573d6000803e3d6000fd5b505050506040513d601f19601f82011682018060405250810190610f7a9190611540565b50610f83610887565b60408051828152602081018790526001600160a01b038916917f7af2bc3f8ec800c569b6555feaf16589d96a9d04a49d1645fd456d75fa0b372b910160405180910390a25b50929695505050505050565b610fe1838383600161114b565b505050565b6001600160a01b0382166110105760405163ec442f0560e01b815260006004820152602401610acb565b61101c60008383611220565b5050565b600081831061102f5781611031565b825b9392505050565b6001600160a01b0383811660009081526001602090815260408083209386168352929052205460001981146110b057818110156110a157604051637dc7a0d960e11b81526001600160a01b03841660048201526024810182905260448101839052606401610acb565b6110b08484848403600061114b565b50505050565b6001600160a01b0383166110e057604051634b637e8f60e11b815260006004820152602401610acb565b6001600160a01b03821661110a5760405163ec442f0560e01b815260006004820152602401610acb565b610fe1838383611220565b6001600160a01b03821661113f57604051634b637e8f60e11b815260006004820152602401610acb565b61101c82600083611220565b6001600160a01b0384166111755760405163e602df0560e01b815260006004820152602401610acb565b6001600160a01b03831661119f57604051634a1406b160e11b815260006004820152602401610acb565b6001600160a01b03808516600090815260016020908152604080832093871683529290522082905580156110b057826001600160a01b0316846001600160a01b03167f8c5be1e5ebec7d5bd14f71427d1e84f3dd0314c0f7b2291e5b200ac8c7c3b9258460405161121291815260200190565b60405180910390a350505050565b6001600160a01b03831661124b5780600260008282546112409190611562565b909155506112bd9050565b6001600160a01b0383166000908152602081905260409020548181101561129e5760405163391434e360e21b81526001600160a01b03851660048201526024810182905260448101839052606401610acb565b6001600160a01b03841660009081526020819052604090209082900390555b6001600160a01b0382166112d9576002805482900390556112f8565b6001600160a01b03821660009081526020819052604090208054820190555b816001600160a01b0316836001600160a01b03167fddf252ad1be2c89b69c2b068fc378daa952ba7f163c4a11628f55a4df523b3ef8360405161133d91815260200190565b60405180910390a3505050565b600060208083528351808285015260005b818110156113775785810183015185820160400152820161135b565b506000604082860101526040601f19601f8301168501019250505092915050565b80356001600160a01b03811681146113af57600080fd5b919050565b600080604083850312156113c757600080fd5b6113d083611398565b946020939093013593505050565b6000806000606084860312156113f357600080fd5b6113fc84611398565b925061140a60208501611398565b9150604084013590509250925092565b60006020828403121561142c57600080fd5b61103182611398565b6000806040838503121561144857600080fd5b8235915061145860208401611398565b90509250929050565b6000806040838503121561147457600080fd5b61147d83611398565b915061145860208401611398565b600181811c9082168061149f57607f821691505b6020821081036114bf57634e487b7160e01b600052602260045260246000fd5b50919050565b6000602082840312156114d757600080fd5b5051919050565b634e487b7160e01b600052601160045260246000fd5b81810381811115610362576103626114de565b8082028115828204841417610362576103626114de565b60008261153b57634e487b7160e01b600052601260045260246000fd5b500490565b60006020828403121561155257600080fd5b8151801515811461103157600080fd5b80820180821115610362576103626114de56fea2646970667358221220ec101b1e2b23d1ce3cc6f68d0e8657ae80c90777509f4698e8285f0fa54d448f64736f6c63430008140033","linkReferences":{"src/library/math.sol":{"math":[{"start":1953,"length":20},{"start":3591,"length":20},{"start":4225,"length":20}]}}},"methodIdentifiers":{"allowance(address,address)":"dd62ed3e","approve(address,uint256)":"095ea7b3","balanceOf(address)":"70a08231","burn()":"44df8e70","decimals()":"313ce567","getReserve()":"59bf5d39","mint()":"1249c58b","name()":"06fdde03","reserveA()":"dc5fa6c5","reserveB()":"19e36f3b","swap(uint256,address)":"d3986f08","symbol()":"95d89b41","tokenA()":"0fc63d10","tokenB()":"5f64b55b","totalSupply()":"18160ddd","transfer(address,uint256)":"a9059cbb","transferFrom(address,address,uint256)":"23b872dd","updateReserve()":"bac051ad"},"id":6}